{
  "_format": "hh-sol-artifact-1",
  "contractName": "TeaParty",
  "sourceName": "contracts/TeaParty.sol",
  "abi": [
    {
      "anonymous": false,
      "inputs": [
        {
          "indexed": true,
          "internalType": "address",
          "name": "previousOwner",
          "type": "address"
        },
        {
          "indexed": true,
          "internalType": "address",
          "name": "newOwner",
          "type": "address"
        }
      ],
      "name": "OwnershipTransferred",
      "type": "event"
    },
    {
      "inputs": [
        {
          "internalType": "address",
          "name": "transaction",
          "type": "address"
        }
      ],
      "name": "getTeaTransactions",
      "outputs": [
        {
          "internalType": "uint256",
          "name": "",
          "type": "uint256"
        }
      ],
      "stateMutability": "view",
      "type": "function"
    },
    {
      "inputs": [],
      "name": "owner",
      "outputs": [
        {
          "internalType": "address",
          "name": "",
          "type": "address"
        }
      ],
      "stateMutability": "view",
      "type": "function"
    },
    {
      "inputs": [],
      "name": "purchaseTransaction",
      "outputs": [
        {
          "internalType": "bool",
          "name": "success",
          "type": "bool"
        }
      ],
      "stateMutability": "payable",
      "type": "function"
    },
    {
      "inputs": [
        {
          "internalType": "address",
          "name": "transaction",
          "type": "address"
        }
      ],
      "name": "removeTeaTransaction",
      "outputs": [
        {
          "internalType": "bool",
          "name": "success",
          "type": "bool"
        }
      ],
      "stateMutability": "nonpayable",
      "type": "function"
    },
    {
      "inputs": [],
      "name": "renounceOwnership",
      "outputs": [],
      "stateMutability": "nonpayable",
      "type": "function"
    },
    {
      "inputs": [
        {
          "internalType": "address",
          "name": "newOwner",
          "type": "address"
        }
      ],
      "name": "transferOwnership",
      "outputs": [],
      "stateMutability": "nonpayable",
      "type": "function"
    },
    {
      "inputs": [
        {
          "internalType": "uint256",
          "name": "amount",
          "type": "uint256"
        }
      ],
      "name": "withdraw",
      "outputs": [
        {
          "internalType": "bool",
          "name": "success",
          "type": "bool"
        }
      ],
      "stateMutability": "nonpayable",
      "type": "function"
    }
  ],
  "bytecode": "0x608060405234801561001057600080fd5b5061001a33610023565b60018055610073565b600080546001600160a01b038381166001600160a01b0319831681178455604051919092169283917f8be0079c531659141344cd1fd0a4f28419497f9722a3daafe3b4186f6b6457e09190a35050565b61051c806100826000396000f3fe6080604052600436106100705760003560e01c80636c54a1cb1161004e5780636c54a1cb146100f8578063715018a6146101005780638da5cb5b14610117578063f2fde38b1461013f57600080fd5b806303256b0e146100755780632e1a7d4d146100a857806369662f25146100d8575b600080fd5b34801561008157600080fd5b50610095610090366004610458565b61015f565b6040519081526020015b60405180910390f35b3480156100b457600080fd5b506100c86100c3366004610486565b610185565b604051901515815260200161009f565b3480156100e457600080fd5b506100c86100f3366004610458565b61022c565b6100c861026c565b34801561010c57600080fd5b50610115610321565b005b34801561012357600080fd5b506000546040516001600160a01b03909116815260200161009f565b34801561014b57600080fd5b5061011561015a366004610458565b610335565b60006101696103ae565b506001600160a01b031660009081526002602052604090205490565b600061018f6103ae565b478211156101f65760405162461bcd60e51b815260206004820152602960248201527f77697468647261773a2066756e6374696f6e20776974686472617720696e76616044820152681b1a59081a5b9c1d5d60ba1b60648201526084015b60405180910390fd5b604051339083156108fc029084906000818181858888f19350505050158015610223573d6000803e3d6000fd5b50600192915050565b60006102366103ae565b6001600160a01b0382166000908152600260205260408120819055600380549161025f8361049e565b9091555060019392505050565b60003433311080159061027e57503415155b6102ba5760405162461bcd60e51b815260206004820152600d60248201526c1a5b9d985b1a59081a5b9c1d5d609a1b60448201526064016101ed565b60006102f160408051426020808301919091526509184e72a000828401528251808303840181526060909201909252805191012090565b3360009081526002602052604081208290556003805492935090610314836104b5565b9190505550600191505090565b6103296103ae565b6103336000610408565b565b61033d6103ae565b6001600160a01b0381166103a25760405162461bcd60e51b815260206004820152602660248201527f4f776e61626c653a206e6577206f776e657220697320746865207a65726f206160448201526564647265737360d01b60648201526084016101ed565b6103ab81610408565b50565b6000546001600160a01b031633146103335760405162461bcd60e51b815260206004820181905260248201527f4f776e61626c653a2063616c6c6572206973206e6f7420746865206f776e657260448201526064016101ed565b600080546001600160a01b038381166001600160a01b0319831681178455604051919092169283917f8be0079c531659141344cd1fd0a4f28419497f9722a3daafe3b4186f6b6457e09190a35050565b600060208284031215610469578081fd5b81356001600160a01b038116811461047f578182fd5b9392505050565b600060208284031215610497578081fd5b5035919050565b6000816104ad576104ad6104d0565b506000190190565b60006000198214156104c9576104c96104d0565b5060010190565b634e487b7160e01b600052601160045260246000fdfea26469706673582212208494af0461c9ba3040d8bea170595565fa947c41afc27d1fb6a7caf0e61a0ed764736f6c63430008040033",
  "linkReferences": {},
  "deployedLinkReferences": {}
}